S0190000466972737420617070206F6E20415433322E737265638B
S11300000C942A000C942D020C943C000C943C009B
S11300100C943C000C943C000C943C000C943C006C
S11300200C943C000C943C000C943C000C943C005C
S11300300C943C000C943C000C943C000C943C004C
S11300400C943C000C943C000C943C000C943C003C
S11300500C943C0011241FBECFE5D8E0DEBFCDBF19
S113006020E0A0E6B0E001C01D92A136B207E1F79E
S11300700E94F2010C9443020C94000040E00E94A0
S113008042000895623459F118F4613441F008953E
S1130090633409F444C0643409F460C00895411120
S11300A00EC04AB321E030E0B90102C0660F771FE9
S11300B08A95E2F7CB01809584238ABB0895413069
S11300C009F06AC04AB321E030E0B90102C0660F0A
S11300D0771F8A95E2F7CB01842B8ABB08954111DF
S11300E00EC047B321E030E0B90102C0660F771FAC
S11300F08A95E2F7CB018095842387BB089541302C
S113010009F04AC047B321E030E0B90102C0660FEC
S1130110771F8A95E2F7CB01842B87BB08954111A1
S11301200EC044B321E030E0B90102C0660F771F6E
S11301308A95E2F7CB018095842384BB08954130EE
S113014059F544B321E030E0B90102C0660F771FCE
S11301508A95E2F7CB01842B84BB089541110EC02C
S113016041B321E030E0B90102C0660F771F8A95E0
S1130170E2F7CB018095842381BB0895413061F47B
S113018041B321E030E0B90102C0660F771F8A95C0
S1130190E2F7CB01842B81BB0895623459F118F442
S11301A0613441F00895633409F444C0643409F4BB
S11301B060C0089541110EC04BB321E030E0B90195
S11301C002C0660F771F8A95E2F7CB0180958423DE
S11301D08BBB0895413009F06AC04BB321E030E095
S11301E0B90102C0660F771F8A95E2F7CB01842B11
S11301F08BBB089541110EC048B321E030E0B90132
S113020002C0660F771F8A95E2F7CB01809584239D
S113021088BB0895413009F04AC048B321E030E07A
S1130220B90102C0660F771F8A95E2F7CB01842BD0
S113023088BB089541110EC045B321E030E0B901F7
S113024002C0660F771F8A95E2F7CB01809584235D
S113025085BB0895413059F545B321E030E0B9013B
S113026002C0660F771F8A95E2F7CB01842B85BB0A
S1130270089541110EC042B321E030E0B90102C03B
S1130280660F771F8A95E2F7CB018095842382BBA2
S11302900895413061F442B321E030E0B90102C075
S11302A0660F771F8A95E2F7CB01842B82BB0895F2
S11302B081110CC061110AC085B78E7F85BF85B7D7
S11302C08D7F85BF8BB780648BBF0895813061F4C7
S11302D061110AC085B7816085BF85B78D7F85BFF1
S11302E08BB780648BBF0895823061F461110AC0BA
S11302F085B78E7F85BF85B7826085BF8BB78064E5
S11303008BBF0895833061F461110AC085B78160A1
S113031085BF85B7826085BF8BB780648BBF089526
S113032081110CC0613051F485B78B7F85BF85B7CF
S1130330877F85BF8BB780688BBF0895813061F458
S1130340613051F485B7846085BF85B7877F85BFE9
S11303508BB780688BBF0895823061F4613051F4AB
S113036085B78B7F85BF85B7886085BF8BB780686D
S11303708BBF0895833061F4613051F485B7846094
S113038085BF85B7886085BF8BB780688BBF0895AC
S1130390811102C06230C9F0813011F46230A9F0D9
S11303A0823049F4623039F484B78F7B84BF8BB7D1
S11303B080628BBF0895833041F4623031F484B796
S11303C0806484BF8BB780628BBF089541E00E9434
S11303D04200089541E00E94CD00089540E00E944B
S11303E0CD00089561E480E00E94E60161E483E0C9
S11303F00E94E60161E487E00E94E60164E482E091
S11304000E943E00789460E083E00E94580180914D
S11304106000813099F028F08230A9F08330C1F077
S1130420F6CF61E480E00E94EE0161E483E00E9483
S1130430EE0161E487E00E94EE01E9CF61E480E02F
S11304400E94EA01E4CF61E483E00E94EA01DFCF85
S113045061E487E00E94EA01DACF1F920F920FB69F
S11304600F9211248F9380916000833020F48F5F6A
S11304708093600002C0109260008F910F900FBEB5
S10D04800F901F901895F894FFCF19
S9030000FC
