S02B00004F6E2D64656D616E642054726166666963206C6967687420636F6E74726F6C206D6F64656C2E737205
S11300000C942A000C94B8010C943C000C943C0011
S11300100C943C000C943C000C943C000C943C006C
S11300200C943C000C943C000C943C000C943C005C
S11300300C943C000C943C000C943C000C943C004C
S11300400C943C000C943C000C943C000C943C003C
S11300500C943C0011241FBECFE5D8E0DEBFCDBF19
S113006020E0A0E6B0E001C01D92A436B207E1F79B
S11300700E9432020C94CB060C9400001F93CF9381
S1130080DF93C62FD42F122F61E40E94530580936F
S113009062008130B1F462E48C2F0E945305809396
S11300A06200813071F461E48D2F0E9453058093C6
S11300B06200813031F462E4812F0E945305809301
S11300C06200DF91CF911F910895CF93C62F61E411
S11300D00E944A0580936200813031F462E48C2FDF
S11300E00E944A0580936200CF910895CF93C62F52
S11300F061E40E945C0580936200813031F462E423
S11301008C2F0E945C0580936200CF910895109219
S1130110600027E040E066E081E00E943E0065E088
S113012082E00E94650040E050E060EA70E481E013
S11301300E949B041092610081E08093600010C0D3
S113014066E081E00E94760040E050E060E07FE3FA
S113015084E00E949B04809161008F5F8093610022
S1130160809161008A3060F326E041E065E082E03E
S11301700E943E0067E080E00E94650040E050E09D
S113018060EA70E481E00E949B0482E08093600056
S113019010C066E081E00E94760040E050E060E03C
S11301A07FE384E00E949B048091610081508093EE
S11301B06100809161008111ECCFA9CF1F93CF938F
S11301C0DF9300D0CDB7DEB7AE014F5F5F4F61E480
S11301D080E00E94640580936200813009F0C2C00F
S11301E0AE014E5F5F4F61E482E00E94640580933C
S11301F06200813009F0B6C089818130B1F49091F8
S11302006000913091F440E050E060EA70E40E94B4
S11302109B0461E480E00E94530580936200813076
S113022009F0A0C00E9434059DC09A81913009F064
S113023054C090916000911150C065E082E00E942A
S1130240650010E00CC066E081E00E94760040E0AA
S113025050E060E07FE384E00E949B041F5F1A305B
S113026090F326E041E065E082E00E943E0067E012
S113027080E00E94650040E050E060EA70E481E0C4
S11302800E949B0414C061E480E00E9453058093A3
S11302906200813009F066C066E00E94760040E0AA
S11302A050E060E07FE384E00E949B041150111150
S11302B0EACF26E041E067E080E00E943E0065E08E
S11302C082E00E94650040E050E060EA70E481E072
S11302D00E949B040E94340545C0813009F042C04D
S11302E0809160008230F1F561E480E00E94530562
S11302F0809362008130B1F562E487E00E94530587
S113030080936200813071F565E082E00E946500AF
S11303101AE00CC066E081E00E94760040E050E004
S113032060E07FE384E00E949B0411501111F2CF3E
S113033026E041E065E082E00E943E0067E080E064
S11303400E94650040E050E060EA70E481E00E94B1
S11303509B048AE08093610061E480E00E9453057D
S1130360809362000F900F90DF91CF911F910895B9
S11303701F920F920FB60F9211242F933F934F9316
S11303805F936F937F938F939F93AF93BF93EF93F9
S1130390FF930E94DE00FF91EF91BF91AF919F9177
S11303A08F917F916F915F914F913F912F910F901A
S11303B00FBE0F901F901895CF93DF93C62FD42FA5
S11303C061E40E94410580936200813071F461E42C
S11303D08C2F0E94410580936200813031F461E4E6
S11303E08D2F0E94410580936200DF91CF91089583
S11303F0CF93DF93C62FD42F62E40E9441058093EC
S11304006200813071F462E48C2F0E944105809374
S11304106200813031F462E48D2F0E9441058093A3
S11304206200DF91CF91089542E061E080E00E9494
S1130430DC0147E066E085E00E94F80180E00E946C
S1130440830480E00E94990464E482E00E943805F9
S113045080936200813029F4789460E083E00E9404
S1130460FD0308950E9414020E94870080E090E03A
S11304700895623469F118F4613441F08DC0633435
S113048009F448C0643409F466C086C041110FC041
S11304904AB321E030E0B90102C0660F771F8A95A4
S11304A0E2F7CB01809584238ABB84E00895413030
S11304B009F074C04AB321E030E0B90102C0660F0C
S11304C0771F8A95E2F7CB01842B8ABB84E00895D9
S11304D041110FC047B321E030E0B90102C0660FFB
S11304E0771F8A95E2F7CB018095842387BB84E04C
S11304F00895413009F054C047B321E030E0B90118
S113050002C0660F771F8A95E2F7CB01842B87BB65
S113051084E0089541110FC044B321E030E0B901F3
S113052002C0660F771F8A95E2F7CB01809584237A
S113053084BB84E008954130A9F544B321E030E060
S1130540B90102C0660F771F8A95E2F7CB01842BAD
S113055084BB84E0089541110FC041B321E030E031
S1130560B90102C0660F771F8A95E2F7CB01809527
S1130570842381BB84E008954130B1F441B321E088
S113058030E0B90102C0660F771F8A95E2F7CB010C
S1130590842B81BB84E0089581E0089582E008956E
S11305A082E0089582E0089582E00895623469F15A
S11305B018F4613441F08DC0633409F448C06434E4
S11305C009F466C086C041110FC04BB321E030E08E
S11305D0B90102C0660F771F8A95E2F7CB018095B7
S11305E084238BBB84E00895413009F074C04BB37D
S11305F021E030E0B90102C0660F771F8A95E2F767
S1130600CB01842B8BBB84E0089541110FC048B308
S113061021E030E0B90102C0660F771F8A95E2F746
S1130620CB018095842388BB84E00895413009F090
S113063054C048B321E030E0B90102C0660F771F0F
S11306408A95E2F7CB01842B88BB84E0089541119D
S11306500FC045B321E030E0B90102C0660F771F37
S11306608A95E2F7CB018095842385BB84E00895C5
S11306704130A9F545B321E030E0B90102C0660F6D
S1130680771F8A95E2F7CB01842B85BB84E008951C
S113069041110FC042B321E030E0B90102C0660F3E
S11306A0771F8A95E2F7CB018095842382BB84E08F
S11306B008954130B1F442B321E030E0B90102C001
S11306C0660F771F8A95E2F7CB01842B82BB84E007
S11306D0089581E0089583E0089583E0089583E018
S11306E0089583E008956234B9F018F4613431F068
S11306F03DC06334F9F0643459F138C04BB321E0A0
S113070030E0B90102C0660F771F8A95E2F7CB018A
S113071084278BBB84E0089548B321E030E0B9011D
S113072002C0660F771F8A95E2F7CB01842788BB46
S113073084E0089545B321E030E0B90102C0660FBA
S1130740771F8A95E2F7CB01842785BB84E008955F
S113075042B321E030E0B90102C0660F771F8A95E9
S1130760E2F7CB01842782BB84E0089581E00895F9
S11307706234B9F018F4613431F03DC06334F9F0F7
S1130780643459F138C029B330E0B90102C0759519
S113079067958A95E2F7CB018170FA01808384E042
S11307A0089526B330E0B90102C0759567958A951E
S11307B0E2F7CB018170FA01808384E0089523B3CA
S11307C030E0B90102C0759567958A95E2F7CB01CF
S11307D08170FA01808384E0089520B330E0B90188
S11307E002C0759567958A95E2F7CB018170FA018D
S11307F0808384E0089581E0089581110CC0611123
S11308000AC085B78E7F85BF85B78D7F85BF8BB7BF
S113081080648BBF0895813061F461110AC085B78B
S1130820816085BF85B78D7F85BF8BB780648BBFA3
S11308300895823061F461110AC085B78E7F85BF47
S113084085B7826085BF8BB780648BBF0895833082
S113085061F461110AC085B7816085BF85B7826084
S113086085BF8BB780648BBF089581110CC0613044
S113087051F485B78B7F85BF85B7877F85BF8BB7DD
S113088080688BBF0895813061F4613051F485B77D
S1130890846085BF85B7877F85BF8BB780688BBF32
S11308A00895823061F4613051F485B78B7F85BF40
S11308B085B7886085BF8BB780688BBF0895833008
S11308C061F4613051F485B7846085BF85B7886071
S11308D085BF8BB780688BBF0895823049F462303E
S11308E039F484B78F7B84BF8BB780628BBF089544
S11308F0833041F4623031F484B7806484BF8BB7B1
S113090080628BBF089513BE882391F0813021F457
S113091083B7806483BF0895823021F483B78860ED
S113092083BF089583B7886083BF83B7806483BF20
S1130930089582BF08950F931F93282F13BE882311
S113094071F1CB01BA012130A1F423B7216023BF97
S11309502DEB37E346E859E30E94D90520E030E067
S113096040E85FE30E946D050E944B068B019C01E9
S113097019C02230D9F423B7226023BF2DEB37E30B
S113098046E05BE30E94D90520E030E040E85FE305
S11309900E946D050E944B068B019C0103C000E080
S11309A010E0980140E050E0BA0154C02330B9F49B
S11309B023B7226023BF23B7216023BF2DEB37E386
S11309C046E85CE30E94D90520E030E040E85FE3BC
S11309D00E946D050E944B068B019C01E3CF2430DD
S11309E0A1F423B7246023BF2DEB37E346E85DE38E
S11309F00E94D90520E030E040E85FE30E946D05E5
S1130A000E944B068B019C01CDCF23B7246023BFEA
S1130A1023B7216023BF2DEB37E346E85EE30E9452
S1130A20D90520E030E040E85FE30E946D050E94B4
S1130A304B068B019C01B6CF80916300813079F025
S1130A4008B600FEFDCF88B7816088BF4F5F5F4F57
S1130A506F4F7F4F401751076207730768F3109277
S1130A6063001F910F91089581E0809363000895BE
S1130A7040E00E943902843011F080E0089581E062
S1130A80089541E00E943902843011F080E0089515
S1130A9081E0089541E00E94D602843011F080E0A4
S1130AA0089581E0089540E00E94D602843011F058
S1130AB080E0089581E008950E947303843011F06A
S1130AC080E0089581E008950E94B803843011F015
S1130AD080E0089581E008955058BB27AA270E941A
S1130AE084050C9491060E94830638F00E948A06BD
S1130AF020F039F49F3F19F426F40C9480060EF488
S1130B00E095E7FB0C947A06E92F0E94A20658F3BD
S1130B10BA17620773078407950720F079F4A6F5DE
S1130B200C94C4060EF4E0950B2EBA2FA02D0B01E5
S1130B30B90190010C01CA01A0011124FF27591B1E
S1130B4099F0593F50F4503E68F11A16F040A22F24
S1130B50232F342F4427585FF3CF46953795279595
S1130B60A795F0405395C9F77EF41F16BA0B620B94
S1130B70730B840BBAF09150A1F0FF0FBB1F661FDB
S1130B80771F881FC2F70EC0BA0F621F731F841F1E
S1130B9048F4879577956795B795F7959E3F08F044
S1130BA0B0CF9395880F08F09927EE0F9795879506
S1130BB008950E94ED050C9491060E948A0658F04F
S1130BC00E94830640F029F45F3F29F00C947A06D2
S1130BD051110C94C5060C9480060E94A20668F379
S1130BE09923B1F3552391F3951B550BBB27AA27E2
S1130BF062177307840738F09F5F5F4F220F331F1C
S1130C00441FAA1FA9F335D00E2E3AF0E0E832D0E3
S1130C1091505040E695001CCAF72BD0FE2F29D0E6
S1130C20660F771F881FBB1F261737074807AB07B8
S1130C30B0E809F0BB0B802DBF01FF2793585F4F2D
S1130C403AF09E3F510578F00C947A060C94C50650
S1130C505F3FE4F3983ED4F3869577956795B7950F
S1130C60F7959F5FC9F7880F911D9695879597F91A
S1130C700895E1E0660F771F881FBB1F6217730793
S1130C808407BA0720F0621B730B840BBA0BEE1FA8
S1130C9088F7E09508950E94AA0688F09F5798F077
S1130CA0B92F9927B751B0F0E1F0660F771F881F6D
S1130CB0991F1AF0BA95C9F714C0B13091F00E9487
S1130CC0C406B1E008950C94C406672F782F8827D2
S1130CD0B85F39F0B93FCCF3869577956795B395AE
S1130CE0D9F73EF490958095709561957F4F8F4F1D
S1130CF09F4F089597F99F6780E870E060E008953A
S1130D009FEF80EC089500240A941616170618061F
S1130D100906089500240A941216130614060506FB
S1130D200895092E0394000C11F4882352F0BB0F8C
S1130D3040F4BF2B11F460FF04C06F5F7F4F8F4FEF
S1130D409F4F089557FD9058440F551F59F05F3F2A
S1130D5071F04795880F97FB991F61F09F3F79F0D9
S1130D6087950895121613061406551FF2CF46955B
S1130D70F1DF08C0161617061806991FF1CF8695DD
S1130D807105610508940895E894BB2766277727C1
S10D0D90CB0197F90895F894FFCF02
S9030000FC
